:020000040800F2
:10000000380B00249D030008414E0008012600081B
:10001000394E000821050008415900080000000081
:1000200000000000000000000000000081560008F1
:10003000410500080000000071550008E156000865
:10004000B7030008B7030008B7030008B7030008A8
:10005000B7030008B7030008B7030008B703000898
:10006000B7030008B7030008B70300082905000814
:100070003105000839050008B7030008B703000878
:10008000B7030008B7030008B703000859050008C4
:1000900069050008B7030008B7030008B7030008A4
:1000A000B7030008B7030008B7030008B703000848
:1000B000B7030008B7030008B7030008B703000838
:1000C000B7030008B7030008B7030008B703000828
:1000D000B70300083159000839590008B703000870
:1000E000B7030008B703000800000000B7030008CA
:1000F000B7030008B7030008B7030008B7030008F8
:10010000B7030008B7030008B7030008B7030008E7
:10011000B7030008B7030008B7030008B7030008D7
:10012000B7030008B7030008B7030008B7030008C7
:10013000B7030008B7030008B7030008B7030008B7
:1001400000000000000000000000000000000000AF
:10015000B7030008B7030008B7030008B703000897
:10016000B7030008B7030008B7030008B703000887
:10017000B7030008B7030008B70300080000000039
:10018000B7030008B7030008B7030008B703000867
:10019000B7030008B7030008B7030008B703000857
:1001A000B7030008B7030008B70300080000000009
:1001B000B7030008B7030008B7030008B703000837
:1001C000B7030008B70300080000000000000000AB
:1001D0000000000000000000B7030008000000005D
:1001E000000000000000000000000000000000000F
:1001F0000000000000000000B7030008B70300087B
:10020000B7030008B703000800000000B7030008A8
:10021000B7030008B7030008B7030008B7030008D6
:10022000B703000800000000B7030008000000004A
:10023000B7030008B703000800000000B703000878
:10024000B7030008B7030008B7030008B7030008A6
:10025000B7030008B7030008B7030008B703000896
:10026000B7030008B7030008B7030008B703000886
:10027000B7030008B7030008B70300080000000038
:10028000B7030008B7030008B7030008B703000866
:1002900000000000B7030008B703000800000000DA
:1002A00000000000B7030008B7030008B703000808
:1002B000B7030008B7030008B70300087905000872
:1002C000B7030008B7030008B703000800F002F8FE
:1002D00000F054F814A696E8000CB244B344DA4592
:1002E00001D100F04BF8BAE80F000FA696E83000F5
:1002F000A5EB040504EB0607AAEB0704A7F1010729
:100300004FEA15154FEA3414A4F10104AC4201D3AD
:1003100000F034F813F0010F18BFFB1A43F001038B
:1003200000F001F8DBE71847247B0000447B000065
:10033000103A24BF78C878C1FAD8520724BF30C811
:1003400030C144BF04680C60704700007047000073
:100350000023002400250026103A28BF78C1FBD8CE
:10036000520728BF30C148BF0B6070471FB507F068
:10037000E3FC00F09DF81FBD10B510BDDFF80CD0F8
:10038000FFF7F4FF07F06CF800F0B8F8380B002422
:1003900003B4FFF7F1FF03BC00F0BAF8064880474A
:1003A00006480047FEE7FEE7FEE7FEE7FEE7FEE75A
:1003B000FEE7FEE7FEE7FEE7F1570008CD02000882
:1003C000032A40F2308010F0030C00F0158011F881
:1003D000013BBCF1020F624498BF11F801CB00F859
:1003E000013B38BF11F8013BA2F1040298BF00F8AD
:1003F00001CB38BF00F8013B11F0030300F025806A
:10040000083AC0F0088051F8043B083A51F804CB90
:10041000A0E80810F5E7121D5CBF51F8043B40F856
:10042000043BAFF30080D20724BF11F8013B11F861
:1004300001CB48BF11F8012B24BF00F8013B00F8A5
:1004400001CB48BF00F8012B704710B5203AC0F02F
:100450000B80B1E81850A0E81850B1E81850A0E897
:100460001850203ABFF4F5AF5FEA027C24BFB1E830
:100470001850A0E8185044BF18C918C0BDE8104073
:100480005FEA827C24BF51F8043B40F8043B08BF7C
:100490007047D20728BF31F8023B48BF11F8012B43
:1004A00028BF20F8023B48BF00F8012B704700002E
:1004B00008487CB57844009007487844009C05467D
:1004C000019004E02046016808448047241DAC42A6
:1004D000F8D17CBDB4790000BA79000010B500F005
:1004E00009F8006810BD10B5044600F003F8046078
:1004F00010BD0000004870471000002410B50446ED
:10050000AFF300802046BDE81040FFF741BF7047C1
:1005100001491820ABBEFEE72600020000000000E3
:10052000FFE7FEE700000000704700000000000049
:10053000704700000000000070470000000000004D
:10054000704700000000000081B0EFF3108072B629
:100550000090FFE7FEE7000080B540F21810C2F2FD
:10056000004000F059FD80BD80B540F2B810C2F2E5
:10057000004000F051FD80BD80B540F25820C2F22D
:10058000004000F049FD80BD84B002900298406BAD
:10059000009002980068D0F884004FF6FC71884300
:1005A000009940EA810002990968C1F88400029824
:1005B0000068D0F8840020F47F00029A1168926BE2
:1005C00040EA0240C1F884000298816B0098084418
:1005D000009002980068D0F888006FF38F000099AF
:1005E00040EA810002990968C1F888000298006811
:1005F000D0F8880020F4FE00029A1168D26B40EA1D
:100600000240C1F888000298C16B009800EB4100DD
:10061000009002980068D0F8A0006FF38F00009956
:1006200040EA810002990968C1F8A00002980068B8
:10063000D0F8A00020F4FE00029A1168126C40EA83
:100640000240C1F8A0000299086C496C009A00FBB6
:100650000120009002980068D0F8B0006FF38F007E
:10066000009940EA810002990968C1F8B000029837
:100670000068D0F8B00020F4FE00029A1168926C75
:1006800040EA0240C1F8B0000299886CC96C009A37
:1006900000FB0120009002980068D0F8AC006FF3D6
:1006A0008F00009940EA810002990968C1F8AC0006
:1006B0000299086D496D009A00FB01200090029894
:1006C0000068D0F8F0006FF38F00009940EA8100D5
:1006D00002990968C1F8F00002980068D0F8F000AB
:1006E00020F47C10029A1168926D40EA0240C1F831
:1006F000F0000298816D009800EB41000090029894
:100700000068D0F8C0006FF38F00009940EA8100C4
:1007100002990968C1F8C00002980068D0F8C000CA
:1007200020F47C10029A1168D26D40EA0240C1F8B0
:10073000C00002980068D0F8C00020F07C50029AF7
:100740001168126E40EA0260C1F8C00002994A6B5B
:100750004AF60040C4F2000000EB8200C86602992D
:100760008A6BC86E00EB820008670299CA6B086F3B
:1007700000EBC200486702990A6C4B6C486F5A4301
:1007800000EB8200886702998A6CCB6C886F5A43B1
:1007900000EB8200C86702990A6D4B6DC86F5A431F
:1007A00000EB8200C1F8800002998A6DD1F88000C8
:1007B00000EBC200C1F884000299CA6D8B6ED1F8BB
:1007C00084005A4300EB8200C1F8880002990A6E47
:1007D0008B6ED1F888005A4300EB8200C1F890007C
:1007E0000298D0F890004DF2FD31C4F20001884229
:1007F0000FD3FFE70299D1F89C0040F02000C1F828
:100800009C000299032081F8980001208DF80F00C8
:1008100017E00298C06E0190FFE701980299D1F8A5
:100820009010884208D2FFE7019900200860FFE796
:10083000019804300190F0E7FFE700208DF80F00E9
:10084000FFE79DF80F0004B07047000000000000B3
:1008500088B007900691059204930698406848B9BD
:10086000FFE70698016882680069104340EA81400A
:10087000039009E006980168826800691043084304
:1008800040F080400390FFE70698D0F820C0C16890
:1008900042698369C06940EA0C601843104340EA2A
:1008A000014002900798826ED0F884000499514369
:1008B00000EB8100019003980199086001980430D1
:1008C000019002980199086001980430019000207D
:1008D0000090FFE700980699CA6847F6D051C0F625
:1008E0000001895C88420DD2FFE7059800994058C5
:1008F00001990860019804300190FFE700980430E6
:100900000090E7E708B0704785B00390029101922C
:10091000039890F898008DF803009DF803000128D3
:1009200005D0FFE79DF8030002285DD1FFE702989C
:1009300003990968896D084207D1FFE703980168A8
:10094000C86D40F00100C86515E002980399096878
:10095000896D08400299884207D1FFE70398016832
:10096000C86D40F00200C86504E0039801680320E8
:10097000C865FFE7FFE79DF809008007002809D553
:10098000FFE7019A03980168D1F8E0001043C1F82D
:10099000E000FFE79DF809004007002809D5FFE7C0
:1009A000019A03980168D1F8E4001043C1F8E4000B
:1009B000FFE7FFE702984FF6FF71C3F6CF7100EA39
:1009C000010203980168486D10434865029A4AF68F
:1009D0001401C4F20001086840EA92700860FFE761
:1009E00000208DF813000AE00399D1F89C0040F034
:1009F0000200C1F89C0001208DF81300FFE79DF86C
:100A0000130005B07047000080B586B004900391D4
:100A100002920398406808B9FFE700E0FFE70498F6
:100A200090F89800022845D1FFE704980068D0F8B4
:100A3000C00010F07C5F0BD1FFE70499D1F89C0057
:100A400040F02000C1F89C0001208DF817003CE028
:100A500004980068D0F8C400800200280BD5FFE796
:100A60000499D1F89C0040F40070C1F89C0001206A
:100A70008DF8170029E004980068D0F8C400C0F38E
:100A80000440019004980399029A019BFFF7E0FE4D
:100A90000199012000FA01F1049A1268C2F8D010FD
:100AA000019988400499C1F89400FFE700208DF86F
:100AB00017000AE00499D1F89C0040F00800C1F842
:100AC0009C0001208DF81700FFE79DF8170006B085
:100AD00080BD00000000000082B00190009102B0D3
:100AE000704700000000000087B005900491059851
:100AF00090F898008DF803009DF80300012805D0B8
:100B0000FFE79DF8030002286AD1FFE70498C06858
:100B1000072801D1FFE7FFE70498006878BBFFE7EB
:100B20000498C068072801D0FFE7FFE70498C06871
:100B300007280CD1FFE7049A10699169D269000473
:100B400040EA0220084340F0605003900CE0049912
:100B50008868CB680A694969800740EAC36040EA4F
:100B6000024008430390FFE70598C06E0499496866
:100B700000EB810001900398019908602CE0049833
:100B8000C068072801D0FFE7FFE70498C168006943
:100B900040EA417003900498C068072804D1FFE739
:100BA00004988069029006E004988168406940EAF0
:100BB00081700290FFE70598006F0499496800EB87
:100BC000C1000190039801990860019804300190D8
:100BD000029801990860FFE700208DF81B000AE0E9
:100BE0000599D1F89C0040F00200C1F89C0001205A
:100BF0008DF81B00FFE79DF81B0007B07047000051
:100C000085B0DDF814C0039002910192009303981F
:100C100090F89800012812D1FFE70298000101998D
:100C200040EA8100009940EA410005990843039990
:100C30000968C1F8800000208DF813000AE00399CC
:100C4000D1F89C0040F00400C1F89C0001208DF810
:100C50001300FFE79DF8130005B070470000000087
:100C600084B0029001910092029890F898000128B7
:100C700024D1FFE7019840280ED1FFE702980068D1
:100C8000D0F8A00020F00040009940EAC17002991D
:100C90000968C1F8A0000DE002980068D0F8B00023
:100CA00020F00040009940EAC17002990968C1F83B
:100CB000B000FFE700208DF80F000AE00299D1F89C
:100CC0009C0040F00400C1F89C0001208DF80F004A
:100CD000FFE79DF80F0004B070470000000000001F
:100CE00081B0009001B0704782B0019000910198EE
:100CF0000168886920F00100886102B07047000037
:100D00008AB00890079106920593002001900898F8
:100D100090F898008DF803009DF80300022840F039
:100D20005C81FFE70798402851D1FFE708980068E9
:100D3000D0F8A00010F4FE0F0BD1FFE70899D1F80E
:100D40009C0040F02000C1F89C0001208DF8270095
:100D50004EE108980068D0F8A400400658B9FFE7B3
:100D60000899D1F89C0040F48070C1F89C000120E3
:100D70008DF827003CE108980068D0F8A40000F046
:100D800080710120B0EB116F0DD1FFE7089800686A
:100D9000D0F8A0100120B0EBD17F03D1FFE70120F4
:100DA0000190FFE7FFE708980068D0F8A40000F47E
:100DB0007C51019800EB112001900898426C406F23
:100DC0000199514300EB81000490FFE770E0079820
:100DD000412851D1FFE708980068D0F8B00010F41E
:100DE000FE0F0BD1FFE70899D1F89C0040F02000DE
:100DF000C1F89C0001208DF82700F9E008980068F0
:100E0000D0F8B400400658B9FFE70899D1F89C0023
:100E100040F48070C1F89C0001208DF82700E7E0C5
:100E200008980068D0F8B40000F080710120B0EBA1
:100E3000116F0DD1FFE708980068D0F8B0100120BD
:100E4000B0EBD17F03D1FFE701200190FFE7FFE77F
:100E500008980068D0F8B40000F47C51019800EBC9
:100E6000112001900898C26C806F0199514300EBEA
:100E700081000490FFE71AE007980899096D8842FD
:100E80000BD3FFE70899D1F89C0040F02000C1F88F
:100E90009C0001208DF82700AAE00898426DC06FE1
:100EA0000799514300EB81000490FFE7FFE7FFE75C
:100EB0000498006800F080400699486006984068F1
:100EC00038B9FFE704980068C0F38A4006990860C3
:100ED00006E00498006820F0604006990860FFE78B
:100EE0000498006800F00050069988600498006833
:100EF00000F00040069908610498043004900498BA
:100F000000880699C86104980068C0F303400699F8
:100F1000C8600498006800F480100699486104983D
:100F2000006800F400100699886104980068C0F316
:100F300006600699086204980068C00F0699486226
:100F40000498043004900498039000200290FFE776
:100F500002980699CA6847F6D051C0F60001895C2C
:100F600088420AD2FFE70398029A805C0599885468
:100F7000FFE7029801300290EAE70798402806D17F
:100F8000FFE7019808990968C1F8A80021E00798CF
:100F9000412806D1FFE7019808990968C1F8B8000F
:100FA00016E007981F2808D8FFE707990120884016
:100FB00008990968C1F8980009E0079800F01F0136
:100FC0000120884008990968C1F89C00FFE7FFE705
:100FD000FFE700208DF827000AE00899D1F89C006F
:100FE00040F00800C1F89C0001208DF82700FFE7C1
:100FF0009DF827000AB0704782B001900198006800
:10100000D0F8C40000F03F000090009802B0704794
:1010100081B0009001B0704780B594B013904AF64B
:101020001000C4F200000068800712904AF6140015
:10103000C4F200000168129800EA817012901398BF
:101040000068006D00F47040119013980068416DC5
:1010500011980840119013980068006D00F00F007F
:10106000109013980068416D1098084010901398E4
:101070000068006D00F0F0000F9013980068416D5B
:101080000F9808400F9013980068006D00F07150A1
:101090000E9013980068416D0E9808400E901398BA
:1010A0000068006D00F060700D9013980068416D4D
:1010B0000D9808400D9013980068406D03901398A8
:1010C0000068006D01909DF80D00C007B8B1FFE702
:1010D0009DF80500C00788B1FFE7FFE71398016896
:1010E0004FF4807008654AF61001C4F20001002038
:1010F0000860FFE71398FFF78BFFFFE7FFE79DF816
:101100000D0000F004010020B0EB910F28D0FFE7A4
:101110009DF8050000F004010020B0EB910F1ED0F7
:10112000FFE713980068D0F8DC000B901398006874
:10113000D0F8E4100B9808400B90FFE71398016873
:101140004FF4806008654AF61001C4F200010020E7
:101150000860FFE713980B9900F0FEFDFFE7FFE73B
:101160001298B8B1FFE7FFE712984FF6FF71C3F688
:10117000CF7108401399096808651298800F4AF6E4
:101180001001C4F200010860FFE713981299FFF7FD
:10119000A3FCFFE71198B8B1FFE7FFE711984FF6FE
:1011A000FF71C3F6CF71084013990968086511985B
:1011B000800F4AF61001C4F200010860FFE713989F
:1011C000119900F0D9FDFFE71098B8B1FFE7FFE7EC
:1011D00010984FF6FF71C3F6CF7108401399096854
:1011E00008651098800F4AF61001C4F200010860EB
:1011F000FFE71398109900F0F7FCFFE70F98B8B1DC
:10120000FFE7FFE70F984FF6FF71C3F6CF71084075
:101210001399096808650F98800F4AF61001C4F207
:1012200000010860FFE713980F9900F03DFDFFE70C
:101230009DF80D0000F008010020B0EBD10F1BD08D
:10124000FFE79DF8050000F008010020B0EBD10F8A
:1012500011D0FFE7FFE7139801684FF400600865BD
:101260004AF61001C4F2000100200860FFE713985D
:1012700000F08AFDFFE7FFE79DF80D0000F0020196
:101280000020B0EB510F28D0FFE79DF8050000F0DB
:1012900002010020B0EB510F1ED0FFE71398006849
:1012A000D0F8D8000C9013980068D0F8E0100C9893
:1012B00008400C90FFE7139801684FF40070086530
:1012C0004AF61001C4F2000100200860FFE71398FD
:1012D0000C9900F049FDFFE7FFE79DF80E0000F0D4
:1012E00008010020B0EBD10F1BD0FFE79DF80600EE
:1012F00000F008010020B0EBD10F11D0FFE7FFE7AD
:10130000139801684FF4002008654AF61001C4F2F2
:10131000000100200860FFE7139800F061FCFFE780
:10132000FFE79DF80E00C007B8B1FFE79DF8060083
:10133000C00788B1FFE7FFE7139801684FF48030DA
:1013400008654AF61001C4F2000100200860FFE7BA
:10135000139800F0FDFCFFE7FFE79DF80E0000F09A
:1013600004010020B0EB910F1BD0FFE79DF80600B1
:1013700000F004010020B0EB910F11D0FFE7FFE770
:10138000139801684FF4802008654AF61001C4F2F2
:10139000000100200860FFE7139800F0D5FCFFE78C
:1013A000FFE79DF80E0000F002010020B0EB510FA6
:1013B0001FD0FFE79DF8060000F002010020B0EB0F
:1013C000510F15D0FFE7FFE7139801684FF4003085
:1013D00008654AF61001C4F2000100200860FFE72A
:1013E0001399D1F89C0040F08000C1F89C00FFE701
:1013F000FFE70D98B8B1FFE7FFE70D984FF6FF71D3
:10140000C3F6CF7108401399096808650D98800FDD
:101410004AF61001C4F200010860FFE713980D9925
:10142000FFF762FCFFE70E98D0B1FFE7FFE70E98E9
:101430004FF6FF71C3F6CF7108401399096808652C
:101440000E98800F4AF61001C4F200010860FFE711
:101450000E9A1399D1F89C001043C1F89C00FFE745
:10146000139800684AF20001C4F20001884240F07B
:10147000B980FFE71398406880688007002800F073
:10148000B080FFE713984068006A00F00F000A90F0
:1014900013984068416A0A9808400A901398406877
:1014A000006A00F03000099013984068416A09987A
:1014B0000840099013984068006A00F4C0700890D2
:1014C00013984068416A089808400890139840684B
:1014D000006A00F4FC40079013984068416A07983E
:1014E0000840079013984068006A00F4F0200690C6
:1014F00013984068416A069808400690139840681F
:10150000406A029013984068006A00900A9848B1B7
:10151000FFE70A9813994968086213980A9900F03E
:10152000FBFBFFE7099848B1FFE709981399496861
:1015300008621398099900F0FFFBFFE79DF8080087
:1015400000F040010020B0EB911F1FD0FFE79DF895
:10155000000000F040010020B0EB911F15D0FFE724
:1015600013984068C06B000C059013984068C06BDE
:1015700000F03F00049013984168402008621398DF
:101580000599049A00F0D0FBFFE7FFE7089848B1FF
:10159000FFE708981399496808621398089900F0C2
:1015A000B3FBFFE7079860B1FFE707981399496815
:1015B0000862079A1399D1F89C001043C1F89C0067
:1015C000FFE7069860B1FFE706981399496808623B
:1015D000069A1399D1F89C001043C1F89C00FFE7CC
:1015E000FFE7FFE71398D0F89C0020B1FFE71398BE
:1015F000FFF776FBFFE714B080BD0000000000009D
:1016000080B598B0169047F67451C0F6000101A855
:101610004C22FEF71AFF169820B9FFE701208DF83B
:101620005F00D9E1169800684AF20001C4F2000197
:10163000884206D1FFE71699086800F58070486077
:10164000FFE716988068B0F5407F01D1FFE7FFE71C
:101650001698006C08B1FFE7FFE71698806C08B198
:10166000FFE7FFE71698006D08B1FFE7FFE7169860
:10167000006E08B1FFE7FFE71699C86D096E0844D0
:1016800008B1FFE7FFE7169890F8980040B9FFE728
:101690001699002081F89900169800F0A1F9FFE74B
:1016A00016980168886920F01000886100F044FDF8
:1016B0001590FFE71698006880690007002817D585
:1016C000FFE700F039FD1599401A0B280FD3FFE70B
:1016D0001699D1F89C0040F00100C1F89C001699C1
:1016E000032081F8980001208DF85F0074E1E1E7A4
:1016F00016980168886940F00100886100F01CFDBF
:101700001590FFE7169800688069C007B8B9FFE731
:1017100000F012FD1599401A0B280FD3FFE7169918
:10172000D1F89C0040F00100C1F89C0016990320FC
:1017300081F8980001208DF85F004DE1E2E71698EE
:101740000168886940F0020088611698007C0128D1
:1017500007D1FFE716980168886920F0400088618A
:1017600006E016980168886940F040008861FFE74C
:101770001698407C012807D1FFE716980168886910
:1017800040F48040886106E016980168886920F47A
:1017900080408861FFE71698807C012807D1FFE729
:1017A00016980168886920F48050886106E01698D0
:1017B0000168886940F480508861FFE716980068E6
:1017C000806920F44070169A11689268104388610D
:1017D00016980168886920F0A4008861169801684D
:1017E000086920F0100008611698C068012807D128
:1017F000FFE716980168886940F0040088612BE0D3
:101800001698C06830B3FFE71698C068022819D050
:10181000FFE716980168886940F080008861169893
:101820000168086940F0100008611698C068032834
:1018300007D1FFE716980168886940F020008861A9
:10184000FFE706E016980168886940F0200088618B
:10185000FFE700E0FFE7FFE7169A11685369906918
:10186000D2F81CE0A0F1010C6FF0FF0000EB0E209D
:1018700040EA4C60126A013A10430022CFF6FF7230
:1018800002EB03421043C86116988068B0F5407FB0
:101890001CD1FFE7169A1168536A906AD2F82CE0BF
:1018A00001386FF0FF0C0CEB0E2C40EA0C00D2F864
:1018B00030C06FF00F0202EB0C1210430022CFF683
:1018C000FF7202EB03421043C860FFE71698006EF8
:1018D00048B1FFE716980168426ED1F8C000104386
:1018E000C1F8C000FFE71699C86D096E084480B1C1
:1018F000FFE716980068D0F8C80020F00700169A95
:101900001168936E01AA52F823201043C1F8C80051
:10191000FFE71698006C80B1FFE716980068D0F8D2
:10192000BC0020F00700169A1168536C01AA52F807
:1019300023201043C1F8BC00FFE71698806C88B1E3
:10194000FFE716980068D0F8BC0020F07000169AE7
:101950001168D36C01AA52F8232040EA0210C1F8A2
:10196000BC00FFE71698006D88B1FFE71698006885
:10197000D0F8BC0020F4E060169A1168536D01AAFB
:1019800052F8232040EA0220C1F8BC00FFE7169875
:1019900000684AF20001C4F20001884207D1FFE763
:1019A00016984168886820F003008860FFE7169960
:1019B0000020C1F894001699C1F89C0016990120E6
:1019C00081F898001698FEF7DFFD8DF853009DF81A
:1019D00053008DF85F00FFE79DF85F0018B080BDF1
:1019E00080B592B01190002010900F900E900D9045
:1019F0000C90119800684AF20001C4F2000188427C
:101A000048D1FFE7002002F023F940F27000C2F253
:101A100000400168013101600068012810D1FFE732
:101A2000FFE744F2EC40C5F60200016841F4807122
:101A30000160006800F480700B900B98FFE7FFE7EF
:101A4000FFE744F2E040C5F60200016841F00801FA
:101A50000160006800F008000A900A98FFE7032080
:101A60000C9002210D91002104910E910F900920FC
:101A7000109040F60040C5F602000CA900F088F96D
:101A8000049A13200590114600F012FC059800F00E
:101A900003FCA0E0119800684AF20041C4F2000182
:101AA000884249D1FFE7002002F0D2F840F27000EE
:101AB000C2F200400168013101600068012810D1C4
:101AC000FFE7FFE744F2EC40C5F60200016841F48D
:101AD00080710160006800F4807009900998FFE748
:101AE000FFE7FFE744F2E040C5F60200016841F07D
:101AF00002010160006800F0020008900898FFE70A
:101B00004FF440500C9002200D90002002900E9057
:101B10000F900920109040F20040C5F602000CA979
:101B200000F036F9029A14200390114600F0C0FB31
:101B3000039800F0B1FB4DE0119800684DF20041B0
:101B4000C4F20001884244D1FFE740F27000C2F2C3
:101B500000400168013101600068012810D1FFE7F1
:101B6000FFE744F2EC40C5F60200016841F48071E1
:101B70000160006800F4807007900798FFE7FFE7B6
:101B8000FFE744F2E040C5F60200016841F02001A1
:101B90000160006800F0200006900698FFE7C02072
:101BA0000C9002200D90002100910E910F91109049
:101BB00041F20040C5F602000CA900F0E9F8009AD5
:101BC0009F200190114600F073FB019800F064FB28
:101BD000FFE7FFE7FFE712B080BD00000000000054
:101BE00081B0009001B0704780B58EB00D900C911F
:101BF0009DF83000C007002851D0FFE70D9840F253
:101C00001811C2F20041884212D1FFE70D9840F24C
:101C1000A842C2F20042059240210AAB0493FFF7AA
:101C20006FF8049A05980188002003F0A5FE35E0BE
:101C30000D9840F2B811C2F20041884212D1FFE77C
:101C40000D9840F2A842C2F200420392402108AB34
:101C50000293FFF755F8029A03980188012003F0D8
:101C60008BFE1AE00D9840F25821C2F200418842E2
:101C700012D1FFE70D9840F2A842C2F20042019251
:101C8000402106AB0093FFF73BF8009A01980188CA
:101C9000022003F071FEFFE7FFE7FFE7FFE70EB06A
:101CA00080BD00000000000082B00190009102B0F1
:101CB000704700000000000082B00090009890F88B
:101CC0009800012811D1FFE70099022081F89800BF
:101CD00000980168886920F001008861009900205F
:101CE000C1F89C008DF807000AE00099D1F89C002B
:101CF00040F00400C1F89C0001208DF80700FFE7C8
:101D00009DF8070002B0704782B00190009102B0C8
:101D1000704700000000000082B00190009102B006
:101D2000704700000000000083B002900191009213
:101D300003B070470000000082B00190009102B033
:101D4000704700000000000081B0009001B07047B3
:101D500081B0009001B0704782B00190009102B054
:101D6000704700000000000082B00190009102B0B6
:101D7000704700000000000082B00190009102B0A6
:101D8000704700000000000081B0009001B0704773
:101D90008FB00E900D9100200C908020C5F60000B1
:101DA0000990FFE70D9800680C99C840002800F0E2
:101DB000C181FFE70D9800680C9A0121914008400D
:101DC0000B900B98002800F0B181FFE70D98406858
:101DD00000F00300012807D0FFE70D98406800F0ED
:101DE000030002282FD1FFE70E9880680A900C9814
:101DF0004100032000FA01F10A9888430A900D98E7
:101E0000C0680C99490000FA01F10A9808430A9049
:101E10000A980E9988600E9840680A900C990120E3
:101E200000FA01F10A9888430A900D984068C0F3BF
:101E300000100C9900FA01F10A9808430A900A98D8
:101E40000E994860FFE70D98406800F003000328F2
:101E500018D0FFE70E98C0680A900C984100032044
:101E600000FA01F10A9888430A900D9880680C994D
:101E7000490000FA01F10A9808430A900A980E995D
:101E8000C860FFE70D98406800F00300022826D1E3
:101E9000FFE70E980C996FF0030202EA5101084423
:101EA000006A0A900C9800F0070081000F2000FAE9
:101EB00001F10A9888430A900D9800690C9901F085
:101EC0000701890000FA01F10A9808430A900A986C
:101ED0000E990C9B02EA530211440862FFE70E9828
:101EE00000680A900C984100032000FA01F10A985A
:101EF00088430A900D98406800F003000C9949004F
:101F000000FA01F10A9808430A900A980E990860AD
:101F10000D9880798007002800F00781FFE7FFE730
:101F200044F2F440C5F60200016841F0020101608C
:101F3000006800F0020008900898FFE70C9820F075
:101F4000030040F20841C5F6000140580A900C9881
:101F500000F0030081000F2000FA01F10A98884385
:101F60000A900E980021C5F60201884203D1FFE7CE
:101F7000002007906CE00E9840F20041C5F6020187
:101F8000884203D1FFE7012006905EE00E9840F6FC
:101F90000001C5F60201884203D1FFE70220059047
:101FA00050E00E9840F60041C5F60201884203D188
:101FB000FFE70320049042E00E9841F20001C5F6CD
:101FC0000201884203D1FFE70420039034E00E9819
:101FD00041F20041C5F60201884203D1FFE7052026
:101FE000029026E00E9841F60001C5F602018842F3
:101FF00003D1FFE70620019018E00E9841F600415A
:10200000C5F60201884203D1FFE7072000900AE0ED
:102010000E9942F20042C5F602020A20914208BF20
:1020200009200090FFE700980190FFE701980290D7
:10203000FFE702980390FFE703980490FFE70498F6
:102040000590FFE705980690FFE706980790FFE7E1
:1020500007980C9901F00301890000FA01F10A9830
:1020600008430A900A980C9921F0030140F20842B3
:10207000C5F6000288504FF0B04000680A900B99F6
:102080000A9888430A900D988079C006002805D5E3
:10209000FFE70B990A9808430A90FFE70A984FF068
:1020A000B04108600420C5F6000000680A900B9952
:1020B0000A9888430A900D9880798006002805D5F3
:1020C000FFE70B990A9808430A90FFE70A98042152
:1020D000C5F600010860099840680A900B990A98B3
:1020E00088430A900D9880798007002805D5FFE77E
:1020F0000B990A9808430A90FFE70A9809994860E3
:10210000099800680A900B990A9888430A900D98DC
:102110008079C00728B1FFE70B990A9808430A9015
:10212000FFE70A9809990860FFE7FFE70C9801307C
:102130000C9037E60FB0704740F28C50C2F200406E
:10214000006870470000000040F20900C2F2004041
:10215000027840F28C51C2F20041086810440860D5
:10216000704700000000000080B582B0032000F03E
:10217000B7F800F0BDF844F21842C5F60202116843
:10218000C1F3032347F6C051C0F60001CB5C03F056
:102190001F03D84000900098126802F00F02895C7B
:1021A00001F01F01C84040F20401C2F20041086082
:1021B000009840F20001C2F2004108600F2000F0D8
:1021C00013F820B1FFE701208DF8070005E000F0CB
:1021D0004FF800208DF80700FFE79DF8070002B0D8
:1021E00080BD00000000000080B582B0009040F289
:1021F0000900C2F20040007820B9FFE701208DF805
:10220000070030E040F20000C2F20040006840F2F7
:102210000901C2F200410A784FF47A71B1FBF2F180
:10222000B0FBF1F000F0E4F920B1FFE701208DF8F8
:10223000070018E000980F280DD8FFE700994FF02D
:10224000FF30002200F034F8009840F20C01C2F296
:102250000041086003E001208DF8070003E0002042
:102260008DF80700FFE79DF8070002B080BD000071
:1022700081B0FFE744F2F440C5F60200016841F086
:1022800002010160006800F0020000900098FFE782
:1022900001B070470000000080B582B0ADF80600C4
:1022A000BDF9060004F004FE02B080BD000000008D
:1022B00080B586B0ADF816000491039204F020FEBC
:1022C0000290BDF91600019002980499039A02F059
:1022D0002BFE0146019804F063FE06B080BD0000AD
:1022E00080B582B00190019804F07EFE02B080BDFE
:1022F0008AB044F21040C5F60200006800F03800D1
:1023000001460191182800F25F810199DFE811F080
:1023100019005C015C015C015C015C015C015C0119
:102320003A005C015C015C015C015C015C015C01E8
:1023300040005C015C015C015C015C015C015C01D2
:10234000460044F20040C5F60200006800F020019B
:102350000020B0EB511F0ED0FFE744F20040C5F65D
:1023600002000068C0F3C10149F20000C0F2D030A1
:10237000C840029005E049F20000C0F2D03002905F
:10238000FFE727E140F60010C0F23D00029021E196
:1023900047F64000C0F27D1002901BE144F2284055
:1023A000C5F60200016801F0030108910068C0F35E
:1023B0000510079044F22C40C5F60200006800F0BA
:1023C00001000690069844F23441C5F602010968FE
:1023D00089B2C908484300EE100AB8EE400A8DEDF4
:1023E000040A0798002800F0EB80FFE708980090A7
:1023F00048B1FFE70098012865D0FFE70098022860
:1024000000F08380A3E044F20040C5F602000068BB
:1024100000F020010020B0EB511F31D0FFE744F263
:102420000040C5F602000068C0F3C10149F2000097
:10243000C0F2D030C84005909DED050AB8EE400AC4
:102440009DED071AB8EE411A80EE010A44F23040C1
:10245000C5F6020000686FF35F2001EE100AB8EEC7
:10246000411A9DED042A9FED5E3A02EE031AB7EE83
:10247000002A31EE021A20EE010A8DED030A21E056
:102480009DED070AB8EE401A9FED570A80EE010A4B
:1024900044F23040C5F6020000686FF35F2001EEA1
:1024A000100AB8EE411A9DED042A9FED4D3A02EE56
:1024B000031AB7EE002A31EE021A20EE010A8DED62
:1024C000030AFFE765E09DED070AB8EE401A9FEDAD
:1024D000450A80EE010A44F23040C5F60200006869
:1024E0006FF35F2001EE100AB8EE411A9DED042A49
:1024F0009FED3B3A02EE031AB7EE002A31EE021AC4
:1025000020EE010A8DED030A43E09DED070AB8EEC7
:10251000401A9FED320A80EE010A44F23040C5F6BF
:10252000020000686FF35F2001EE100AB8EE411A56
:102530009DED042A9FED2A3A02EE031AB7EE002A17
:1025400031EE021A20EE010A8DED030A21E09DED25
:10255000070AB8EE401A9FED230A80EE010A44F202
:102560003040C5F6020000686FF35F2001EE100AEC
:10257000B8EE411A9DED042A9FED193A02EE031AB6
:10258000B7EE002A31EE021A20EE010A8DED030AA1
:10259000FFE744F23040C5F60200006881B2012036
:1025A00000EB512009909DED030A9DED091AB8EE4C
:1025B000411A80EE010ABCEEC00A8DED020A02E06B
:1025C00000200290FFE705E040F60010C0F23D0059
:1025D0000290FFE702980AB0704700BF20BCBE4BD4
:1025E000000000390024744A0024744C00000000EC
:1025F00080B582B00190019803F046F802B080BD2A
:10260000FFE7FEE70000000082B00190019A44F26B
:10261000D840C5F6020001681143016000680199C5
:1026200008400090009802B07047000000000000D1
:1026300082B00190019A44F2E040C5F602000168C0
:10264000114301600068019908400090009802B0B1
:10265000704700000000000082B00190019A44F22F
:10266000E040C5F60200016811430160006801996D
:1026700008400090009802B0704700000000000081
:1026800082B00190019A44F2E040C5F60200016870
:10269000114301600068019908400090009802B061
:1026A000704700000000000082B00190019A44F2DF
:1026B000E840C5F602000168114301600068019915
:1026C00008400090009802B0704700000000000031
:1026D00082B00190019A44F2E840C5F60200016818
:1026E000114301600068019908400090009802B011
:1026F000704700000000000082B00190019A44F28F
:10270000F040C5F6020001681143016000680199BC
:1027100008400090009802B07047000000000000E0
:1027200083B002900191029800900098019A47F6B8
:10273000E051C0F60001895C0144486920F00400C2
:10274000486103B07047000084B003900291019289
:10275000039800900098029947F6E052C0F60002F4
:10276000515C405820F0C000019908430099029B39
:10277000D25C885004B0704784B0039002910192FB
:10278000039800900098029947F6E052C0F60002C4
:10279000515C405820F48060019908430099029BE5
:1027A000D25C885004B0704784B0039002910192CB
:1027B000039800900098029947F6E052C0F6000294
:1027C000515C405820F4C040019908430099029B95
:1027D000D25C885004B0704784B00390029101929B
:1027E000039800900098029947F6E052C0F6000264
:1027F000515C405820F49070019908430099029B65
:10280000D25C885004B0704784B00390029101926A
:10281000039800900098029947F6E052C0F6000233
:10282000515C405820F40070019908430099029BC4
:10283000D25C885004B0704783B00290019100923E
:1028400001988000029940F2000CC4F2020CB1EB36
:102850000C0118BF012100EB411040F60002C4F248
:102860000202805820F0FF00009908430199890076
:10287000029BB3EB0C0318BF012301EB43118850FB
:1028800003B070470000000084B0039002910192F1
:10289000039800900098029947F6E052C0F60002B3
:1028A000515C405820F4C050019908430099029BA4
:1028B000D25C885004B0704784B0039002910192BA
:1028C000039800900098029947F6E052C0F6000283
:1028D000515C405820F44030019908430099029B14
:1028E000D25C885004B0704781B00090009A842177
:1028F000C5F6000108689043086001B07047000009
:1029000081B00090009A9421C5F6000108689043B8
:10291000086001B07047000081B00090009AA421C7
:10292000C5F6000108689043086001B070470000D8
:1029300081B00090009A0421C5F600010868904318
:10294000086001B07047000081B00090009A242117
:10295000C5F6000108689043086001B070470000A8
:1029600081B00090009A4421C5F6000108689043A8
:10297000086001B07047000081B00090009A80218B
:10298000C5F6000108689043086001B07047000078
:1029900081B00090009A9021C5F60001086890432C
:1029A000086001B07047000081B00090009AA0213B
:1029B000C5F6000108689043086001B07047000048
:1029C00081B00090009A4FF0B041086890430860D1
:1029D00001B070470000000081B00090009A2021F3
:1029E000C5F6000108689043086001B07047000018
:1029F00081B00090009A4021C5F60001086890431C
:102A0000086001B07047000081B00090009A8421F6
:102A1000C5F6000108681043086001B07047000067
:102A200081B00090009A9421C5F600010868104317
:102A3000086001B07047000081B00090009AA421A6
:102A4000C5F6000108681043086001B07047000037
:102A500081B00090009A0421C5F600010868104377
:102A6000086001B07047000081B00090009A2421F6
:102A7000C5F6000108681043086001B07047000007
:102A800081B00090009A4421C5F600010868104307
:102A9000086001B07047000081B00090009A80216A
:102AA000C5F6000108681043086001B070470000D7
:102AB00081B00090009A9021C5F60001086810438B
:102AC000086001B07047000081B00090009AA0211A
:102AD000C5F6000108681043086001B070470000A7
:102AE00081B00090009A4FF0B04108681043086030
:102AF00001B070470000000081B00090009A2021D2
:102B0000C5F6000108681043086001B07047000076
:102B100081B00090009A4021C5F60001086810437A
:102B2000086001B07047000080B586B005900020B5
:102B30008DF813000598007B002800F00A81FFE75C
:102B400005980068002853D0FFE70598407BC00730
:102B500028B1FFE705980068FFF79EFF04E005989D
:102B60000068FFF709FFFFE70598407B8007002812
:102B700005D5FFE705980068FFF746FF04E00598D4
:102B80000068FFF7B1FEFFE70598807B78B3FFE7A9
:102B90000598807B01460391012808D0FFE7039840
:102BA00002280DD0FFE70398032812D01AE00598F9
:102BB0000068FFF7BDFE05980068FFF791FF15E07C
:102BC00005980068FFF7FCFE05980068FFF740FFD6
:102BD0000CE005980068FFF783FF05980068FFF791
:102BE00037FF03E001208DF81300FFE7FFE7FFE761
:102BF00005984068002853D0FFE70598407BC00740
:102C000028B1FFE705984068FFF752FF04E00598F8
:102C10004068FFF7BDFEFFE70598407B800700286E
:102C200005D5FFE705984068FFF7FAFE04E0059830
:102C30004068FFF765FEFFE70598807B78B3FFE704
:102C40000598807B01460291012808D0FFE7029891
:102C500002280DD0FFE70298032812D01AE0059849
:102C60004068FFF771FE05984068FFF745FF15E0E3
:102C700005984068FFF7B0FE05984068FFF7F4FE3E
:102C80000CE005984068FFF737FF05984068FFF7AC
:102C9000EBFE03E001208DF81300FFE7FFE7FFE7FD
:102CA00005988068002853D0FFE70598407BC0074F
:102CB00028B1FFE705988068FFF706FF04E0059854
:102CC0008068FFF771FEFFE70598407B80070028CA
:102CD00005D5FFE705988068FFF7AEFE04E005988C
:102CE0008068FFF719FEFFE70598807B78B3FFE760
:102CF0000598807B01460191012808D0FFE70198E3
:102D000002280DD0FFE70198032812D01AE0059899
:102D10008068FFF725FE05988068FFF7F9FE15E04B
:102D200005988068FFF764FE05988068FFF7A8FEA5
:102D30000CE005988068FFF7EBFE05988068FFF7C8
:102D40009FFE03E001208DF81300FFE7FFE7FFE798
:102D500018E005980068FFF70FFE05984068FFF738
:102D600017FE05988068FFF71FFE05980068FFF7BB
:102D7000BBFD05984068FFF7C3FD05988068FFF725
:102D8000CBFDFFE79DF8130006B080BD00000000FA
:102D900042F20000C5F20020006800F00F0070470A
:102DA00081B0009042F20001C5F20021086820F0D5
:102DB0000F00009A1043086001B070470000000047
:102DC00080B586B0039002910298006890FAA0F056
:102DD0000490049820B9FFE720208DF8170005E043
:102DE0000498B0FA80F08DF81700FFE79DF81700FF
:102DF0000190FFE7029800680199C84000284AD076
:102E0000FFE702980068019A012191400840009074
:102E10000098E0B3FFE702984068012805D0FFE77B
:102E20000298406802280DD1FFE703980099029AA2
:102E3000926800F0C9F80398029A1168D26800F00D
:102E40008BF8FFE703980099029A126900F0A8F83E
:102E500002984068022813D1FFE70098FF2807D89E
:102E6000FFE703980099029A526900F025F806E0FE
:102E700003980099029A526900F032F8FFE7FFE7E1
:102E800003980099029A526800F052F8FFE70198FF
:102E900001300190AEE7002006B080BD00000000C8
:102EA00082B001900091009800040199886102B0FD
:102EB000704700000000000083B002900191009272
:102EC0000298006A019949434943C1EB01129043BA
:102ED000009A514308430299086203B0704700000A
:102EE00083B00290019100920298406A0199090A08
:102EF00049434943C1EB01129043009A51430843AF
:102F00000299486203B0704783B002900191009229
:102F1000029800680199494301EB41029043009AED
:102F2000514308430299086003B070470000000055
:102F300083B0029001910092029800680199494380
:102F400001EB41029043009A514308430299086003
:102F500003B070470000000083B00290019100921E
:102F60000298406801998843009A514308430299A6
:102F7000486003B07047000083B002900191009256
:102F80000298C0680199494301EB41029043009ABD
:102F9000514308430299C86003B070470000000025
:102FA00083B00290019100920298C0680199494350
:102FB00001EB41029043009A514308430299C860D3
:102FC00003B070470000000083B0029001910092AE
:102FD000029880680199494301EB41029043009AAD
:102FE000514308430299886003B070470000000015
:102FF00081B0009044F60C01C5F60201086820F08B
:103000000700009A1043086001B0704700000000FC
:1030100081B0009044F61801C5F60201086820F45A
:103020004040009A1043086001B070470000000063
:1030300044F20040C5F602000068C0F3002070476B
:1030400085B0DDF814C004900391029201939DEDC8
:10305000040AB8EE400A9DED031AB8EE411A80EE5C
:10306000010A9DED021AB8EE411A9DED012AB8EE53
:10307000422A9FED0D3A02EE031A20EE010A8DED71
:10308000000A9DED000A9DED051AB8EE411A80EE8A
:10309000010A8DED000A9DED000ABCEEC00A10EE9B
:1030A000100A05B0704700BF0000003900000000A2
:1030B00044F21840C5F60200006800F00F007047A7
:1030C00044F21C40C5F60200006800F07000704732
:1030D00044F21C40C5F60200006800F4E06070474E
:1030E00082B001909DF8040044F24C41C5F6020103
:1030F00008440090019800990968030EC0F3042267
:1031000093401940D14040EA014002B070470000AE
:1031100080B594B01390002012900E9000F014FD32
:10312000119011980D9003282AD80D99DFE801F02D
:1031300002111C2700F010FB50B1FFE700F0FCFA71
:10314000C10849F20000C0F2D030C8401290FFE739
:1031500017E0FFF76DFF30B1FFE740F60010C0F257
:103160003D001290FFE70CE000F0D2FA30B1FFE72B
:1031700047F64000C0F27D101290FFE701E0FFE744
:10318000FFE713990020086013994860139988603D
:1031900000F052FB109000F057FB0F9000F00CFB7A
:1031A00020B1FFE700F040FB0E90FFE710980028E9
:1031B00052D0FFE700F014FBB8B1FFE712980C9073
:1031C000109809900F980A900E980B9000F048FB09
:1031D00009990A9A0B9B84460C98EE46CEF800C0DB
:1031E000FFF72EFF13990860FFE700F001FBB8B16D
:1031F000FFE712980890109805900F9806900E9887
:10320000079000F039FB0599069A079B84460898B9
:10321000EE46CEF800C0FFF713FF13994860FFE7B2
:1032200000F0EEFAB8B1FFE7129804901098019000
:103230000F9802900E98039000F02AFB0199029AD1
:10324000039B84460498EE46CEF800C0FFF7F8FED4
:1032500013998860FFE7FFE714B080BD000000000D
:1032600080B594B01390002012900E9000F06CFC8A
:10327000119011980D9003282AD80D99DFE801F0DC
:1032800002111C2700F068FA50B1FFE700F054FA71
:10329000C10849F20000C0F2D030C8401290FFE7E8
:1032A00017E0FFF7C5FE30B1FFE740F60010C0F2AF
:1032B0003D001290FFE70CE000F02AFA30B1FFE782
:1032C00047F64000C0F27D101290FFE701E0FFE7F3
:1032D000FFE71399002008601399486013998860EC
:1032E00000F08AFB109000F08FFB0F9000F05CFB69
:1032F00020B1FFE700F078FB0E90FFE71098002860
:1033000052D0FFE700F058FBB8B1FFE712980C90DD
:10331000109809900F980A900E980B9000F080FB7F
:1033200009990A9A0B9B84460C98EE46CEF800C089
:10333000FFF786FE13990860FFE700F045FBB8B180
:10334000FFE712980890109805900F9806900E9835
:10335000079000F071FB0599069A079B8446089830
:10336000EE46CEF800C0FFF76BFE13994860FFE70A
:1033700000F032FBB8B1FFE712980490109801906A
:103380000F9802900E98039000F062FB0199029A48
:10339000039B84460498EE46CEF800C0FFF750FE2B
:1033A00013998860FFE7FFE714B080BD00000000BC
:1033B00080B594B01390002012900E9000F0C4FBE2
:1033C000119011980D9003282AD80D99DFE801F08B
:1033D00002111C2700F0C0F950B1FFE700F0ACF972
:1033E000C10849F20000C0F2D030C8401290FFE797
:1033F00017E0FFF71DFE30B1FFE740F60010C0F206
:103400003D001290FFE70CE000F082F930B1FFE7D9
:1034100047F64000C0F27D101290FFE701E0FFE7A1
:10342000FFE713990020086013994860139988609A
:1034300000F04AFB109000F04FFB0F9000F01CFBD7
:1034400020B1FFE700F038FB0E90FFE7109800284E
:1034500056D0FFE71298002852D0FFE700F014FB87
:10346000B8B1FFE712980C90109809900F980A9045
:103470000E980B9000F03CFB09990A9A0B9B84462E
:103480000C98EE46CEF800C0FFF7DAFD13990860FD
:10349000FFE700F001FBB8B1FFE712980890109821
:1034A00005900F9806900E98079000F02DFB059957
:1034B000069A079B84460898EE46CEF800C0FFF7B0
:1034C000BFFD13994860FFE700F0EEFAB8B1FFE7DF
:1034D00012980490109801900F9802900E98039003
:1034E00000F01EFB0199029A039B84460498EE4665
:1034F000CEF800C0FFF7A4FD13998860FFE7FFE74F
:1035000014B080BD0000000044F21040C5F6020077
:10351000006800F03800704744F21040C5F6020021
:10352000006800F03800704744F21840C5F6020009
:10353000006800F47060704780B588B00790002084
:103540000690079800F0C8F8014602910821C0F2E1
:10355000007188426AD0FFE7029840F20831C0F259
:10356000007188424BD0FFE702980821C0F2017138
:10357000884272D0FFE7029840F20831C0F2017130
:1035800088426AD0FFE702980821C0F2027188429F
:103590006ED0FFE7029840F20831C0F20271884213
:1035A00066D0FFE702980821C0F2037188426AD012
:1035B000FFE7029840F20831C0F20371884262D0FE
:1035C000FFE702980821C0F2047188426AD0FFE741
:1035D000029840F20831C0F20471884262D0FFE7DD
:1035E00002980821C0F20571884266D0FFE7029870
:1035F00040F20831C0F2057188425ED066E002F008
:1036000003F80190FFF790FF01460198C1F30322F0
:1036100047F6E851C0F60001895C01F01F01C8407F
:1036200001F0AAFF01F0D8FF069050E001F0ECFF96
:103630000090FFF779FF01460098C1F3032247F697
:10364000E851C0F60001895C01F01F01C84001F09B
:1036500093FF01F0A9FF069039E000F005FA30B1C0
:10366000FFE703A8FFF7FCFD04980690FFE72EE0B4
:1036700000F062FA30B1FFE703A8FFF799FE049863
:103680000690FFE723E000F067F850B1FFE700F095
:1036900053F8C10849F20000C0F2D030C84006908B
:1036A000FFE714E0FFF7C4FC30B1FFE740F600107D
:1036B000C0F23D000690FFE709E000F075F820B188
:1036C000FFE74FF400400690FFE700E0FFE70698B1
:1036D00008B080BD0000000080B582B00190019864
:1036E000FFF7FEFC02B080BD44F20041C5F60201C6
:1036F000086840F480300860704700000000000057
:1037000044F20040C5F602000068C0F34040704734
:1037100044F20040C5F602000068C0F34040704724
:1037200044F20041C5F60201086840F0010008605B
:10373000704700000000000044F20040C5F602009F
:10374000006800F01800704744F20040C5F602001F
:103750000068C0F38000704744F20040C5F60200E4
:103760000068C0F38000704781B0009044F20441CB
:10377000C5F60201086820F0FE40009A40EA0260A7
:10378000086001B07047000081B0009044F2004131
:10379000C5F60201086820F01800009A104308607E
:1037A00001B070470000000044F27040C5F602000E
:1037B0000068C0F34000704744F22C40C5F6020098
:1037C000006800F00100704744F22C41C5F6020188
:1037D000086840F480300860704700000000000076
:1037E00044F22C40C5F602000068C0F30040704768
:1037F00044F22C40C5F602000068C0F34040704718
:1038000044F22C40C5F602000068C0F380407047C7
:1038100044F20041C5F60201086840F0807008607B
:10382000704700000000000044F23440C5F602007A
:10383000006880B2C008704744F22840C5F6020014
:103840000068C0F30510704744F23040C5F602002E
:1038500000686FF35F200130704700000000000037
:1038600044F23040C5F60200006881B2012000EB4E
:10387000512070470000000044F23040C5F60200BD
:10388000006800F4FE01012000EB114070470000C9
:1038900044F23040C5F60200006800F0FE4101200D
:1038A00000EB11607047000044F20040C5F60200D2
:1038B0000068C0F34060704781B0009044F2284136
:1038C000C5F60201086820F47C70009A40EA0210F4
:1038D000086001B07047000081B0009044F23041B0
:1038E000C5F60201086840F2FF129043009A013ABF
:1038F0001043086001B0704781B0009044F230413D
:10390000C5F60201086820F47E40009B4FF6006275
:10391000CFF6FF7202EB43221043086001B07047FC
:1039200081B0009044F23041C5F60201086820F4ED
:10393000FE00009B0022CFF6FF7202EB0342104311
:10394000086001B07047000081B0009044F230413F
:10395000C5F60201086820F0FE40009A013A40EAEC
:103960000260086001B0704781B0009044F22C41C1
:10397000C5F60201086820F00C00009A40EA8200B7
:10398000086001B07047000081B0009044F22C4103
:10399000C5F60201086820F00200009A40EA4200E1
:1039A000086001B07047000044F22C40C5F60200E8
:1039B0000068C0F30010704744F22C40C5F60200C6
:1039C0000068C0F3C040704744F22C40C5F60200C6
:1039D0000068C0F30050704744F22C40C5F6020066
:1039E0000068C0F34050704744F23C40C5F6020006
:1039F000006880B2C008704744F22840C5F6020053
:103A00000068C0F30530704744F23840C5F6020044
:103A100000686FF35F200130704700000000000075
:103A200044F23840C5F60200006881B2012000EB84
:103A3000512070470000000044F23840C5F60200F3
:103A4000006800F4FE01012000EB11407047000007
:103A500044F23840C5F60200006800F0FE41012043
:103A600000EB11607047000044F20040C5F6020010
:103A70000068C0F3C060704744F22C40C5F60200F5
:103A80000068C0F30020704744F22C40C5F60200E5
:103A90000068C0F38050704744F22C40C5F6020025
:103AA0000068C0F3C050704744F22C40C5F60200D5
:103AB0000068C0F30060704744F24440C5F602005D
:103AC000006880B2C008704744F22840C5F6020082
:103AD0000068C0F30550704744F24040C5F602004C
:103AE00000686FF35F2001307047000000000000A5
:103AF00044F24040C5F60200006881B2012000EBAC
:103B0000512070470000000044F24040C5F602001A
:103B1000006800F4FE01012000EB11407047000036
:103B200044F24040C5F60200006800F0FE4101206A
:103B300000EB11607047000044F20040C5F602003F
:103B40000068C0F34070704744F22840C5F6020098
:103B5000006800F00300704781B0009044F22841F3
:103B6000C5F60201086820F00300009A10430860BF
:103B700001B070470000000081B0009044F218418D
:103B8000C5F60201086820F00F00009A1043086093
:103B900001B070470000000081B0009044F21C4169
:103BA000C5F60201086820F07000009A1043086012
:103BB00001B070470000000081B0009044F21C4149
:103BC000C5F60201086820F4E060009A104308601E
:103BD00001B070470000000081B0009044F218412D
:103BE000C5F60201086820F07000009A10430860D2
:103BF00001B070470000000081B0009044F2204105
:103C0000C5F60201086820F07000009A10430860B1
:103C100001B070470000000082B001909DF80400E0
:103C200044F24C41C5F6020108440090009908682E
:103C3000019A4FEA126CC2F304230CFA03FC20EA47
:103C40000C00C2F307429A401043086002B070476C
:103C500081B0009044F25041C5F60201086820F09E
:103C60004050009A1043086001B070470000000007
:103C700081B0009044F21041C5F60201086820F0BE
:103C80000700009A1043086001B070470000000070
:103C900081B0009044F21841C5F60201086820F492
:103CA0007060009A1043086001B070470000000087
:103CB00080B582B001900198FFF7AEFF02B080BDE1
:103CC00086B003900291029800F0030140F2084090
:103CD000C5F6000050F82110029A100C21EA12419A
:103CE00000910399019190FAA0F00490049820B9F2
:103CF000FFE720208DF8170005E00498B0FA80F067
:103D00008DF81700FFE7009801999DF8172002F041
:103D10001F0291400843029901F0030240F208415A
:103D2000C5F6000141F8220006B07047000000000F
:103D300081B00090009840F20001C2F2004108609A
:103D400001B070470000000081B000900099086841
:103D500020F08000086001B0704700000000000003
:103D600081B000900099886820F08000886001B0E0
:103D7000704700000000000081B000900099486981
:103D800040F00100486101B07047000000000000F1
:103D900080B584B003900291039800680190039865
:103DA0000021C4F20101884225D0FFE70398B0F159
:103DB000804F20D0FFE7039840F20041C4F2000199
:103DC000884218D0FFE7039840F60001C4F20001D2
:103DD000884210D0FFE7039840F60041C4F200018A
:103DE000884208D0FFE7039840F20041C4F2010185
:103DF000884208D1FFE7019820F0700002994968D5
:103E000008430190FFE703980021C4F201018842B2
:103E10004DD0FFE70398B0F1804F48D0FFE70398FB
:103E200040F20041C4F20001884240D0FFE703980D
:103E300040F60001C4F20001884238D0FFE7039841
:103E400040F60041C4F20001884230D0FFE70398F9
:103E500040F20041C4F20101884228D0FFE70398F4
:103E600044F20001C4F20101884220D0FFE7039828
:103E700044F20041C4F20101884218D0FFE70398E0
:103E800044F60001C4F20101884210D0FFE7039814
:103E90004EF20001C4F20001884208D0FFE7039807
:103EA0004EF20041C4F20001884208D1FFE70198B8
:103EB00020F440700299C96808430190FFE7019817
:103EC0000399086003980299896800F0A1F90398A2
:103ED0000299098800F0A4F903980021C4F20101B5
:103EE000884220D0FFE7039840F20041C4F201016C
:103EF000884218D0FFE7039844F20001C4F20101A0
:103F0000884210D0FFE7039844F20041C4F2010157
:103F1000884208D0FFE7039844F60001C4F201018B
:103F2000884206D1FFE703980299096900F080F9F9
:103F3000FFE70398FFF720FF002004B080BD0000DA
:103F40008BB00A9009910998012803D1FFE700205E
:103F5000069046E00998042803D1FFE70120059068
:103F60003CE00998102803D1FFE70220049032E0DA
:103F70000998402803D1FFE70320039028E009981F
:103F8000B0F5807F03D1FFE7042002901DE009987F
:103F9000B0F5806F03D1FFE70520019012E009988A
:103FA000B0F5805F03D1FFE70620009007E0099994
:103FB0000820B1F5803F08BF07200090FFE7009878
:103FC0000190FFE701980290FFE702980390FFE756
:103FD00003980490FFE704980590FFE70598069082
:103FE000FFE706988DF823000A989DF8232047F6EE
:103FF000F851C0F60001895C0844183007909DF81C
:10400000231047F60160C0F60000415C042000FA6E
:1040100001F207990868904308600BB070470000F0
:104020008BB00A9009910998012803D1FFE700207D
:10403000069046E00998042803D1FFE70120059087
:104040003CE00998102803D1FFE70220049032E0F9
:104050000998402803D1FFE70320039028E009983E
:10406000B0F5807F03D1FFE7042002901DE009989E
:10407000B0F5806F03D1FFE70520019012E00998A9
:10408000B0F5805F03D1FFE70620009007E00999B3
:104090000820B1F5803F08BF07200090FFE7009897
:1040A0000190FFE701980290FFE702980390FFE775
:1040B00003980490FFE704980590FFE705980690A1
:1040C000FFE706988DF823000A989DF8232047F60D
:1040D000F851C0F60001895C0844183007909DF83B
:1040E000231047F60160C0F60000415C082000FA8A
:1040F00001F207990868104308600BB07047000090
:1041000080B586B005900491039201208DF80B00D4
:1041100004980190012818D0FFE7019810281BD0BF
:10412000FFE70198B0F5807F1DD0FFE70198B0F55B
:10413000805F1FD0FFE70198B0F5803F21D0FFE7F7
:104140000198B0F5801F23D029E00598039900F06D
:1041500023FF8DF80B0023E00598039900F0A4FFDE
:104160008DF80B001CE00598039901F029F88DF8F3
:104170000B0015E00598039901F0AEF88DF80B00DF
:104180000EE00598039901F01BF98DF80B0007E08C
:104190000598039901F080F98DF80B0000E0FFE726
:1041A0009DF80B0006B080BD82B001900091009890
:1041B0000199486302B0704782B001900091009865
:1041C0000199886302B0704782B001900091009815
:1041D0000199C86302B0704782B0019000910098C5
:1041E0000199086402B0704782B001900091019873
:1041F000806D00980199886502B07047000000004A
:1042000082B00190009100980199C86502B0704792
:1042100082B00190009100980199C86202B0704785
:1042200082B00190009100980199886202B07047B5
:1042300082B00190009100980199086302B0704724
:1042400082B0019000910198406820F070000099C0
:1042500008430199486002B0704700000000000068
:1042600081B000900099486820F49040486000991F
:10427000886820F02A00886001B0704700000000C4
:1042800081B000900099086820F00050086001B0EB
:10429000704700000000000081B00090009908689D
:1042A00040F00100086001B070470000000000000D
:1042B00080B586B00590049101208DF80F00002094
:1042C0000290059800F0F8F8002840F0E080FFE741
:1042D0000598006846F6F311CEF6FF710840049A7F
:1042E0009168D2F810C05369D26941EA0C011943B0
:1042F000114308430599086005980499C96800F0BE
:104300006FF905980499896900F02EF9059841F232
:104310000001C4F20101884208D1FFE740F20830F1
:10432000C0F20070FFF708F9029093E0059844F29C
:104330000041C4F20001884207D1FFE70820C0F223
:104340000070FFF7F9F8029083E0059844F6000149
:10435000C4F20001884207D1FFE70820C0F20070D4
:10436000FFF7EAF8029073E0059844F60041C4F2C2
:104370000001884207D1FFE70820C0F20070FFF774
:10438000DBF8029063E0059845F20001C4F20001F9
:10439000884207D1FFE70820C0F20070FFF7CCF891
:1043A000029053E0059841F20041C4F201018842B5
:1043B00008D1FFE740F20830C0F20070FFF7BCF808
:1043C000029042E0059847F60001C4F200018842DD
:1043D00007D1FFE70820C0F20070FFF7ADF80290A8
:1043E00032E0059847F60041C4F20001884207D147
:1043F000FFE70820C0F20070FFF79EF8029022E06D
:10440000059841F60001C4F20101884208D1FFE796
:1044100040F20830C0F20070FFF78EF8029011E011
:10442000059841F60041C4F20101884208D1FFE736
:1044300040F20830C0F20070FFF77EF8029000E012
:10444000FFE7FFE7FFE7FFE7FFE7FFE7FFE7FFE73C
:10445000FFE7FFE70298A0B1FFE70498406880B14A
:10446000FFE700208DF80F0005980299049B1A6859
:10447000D3F804C0DB69EE46CEF800C000F024F8A3
:10448000FFE705980499096800F07EF8FFE79DF8BA
:104490000F0006B080BD000081B000900098C06998
:1044A000C0F3805001B0704781B000900098C0699F
:1044B000C0F3405001B0704781B000900098006890
:1044C00000F0010001B0704786B0DDF818C005901B
:1044D00004910392029303980C2801D3FFE741E073
:1044E000069808B9FFE73CE00298B0F5004F23D1E9
:1044F000FFE704989DF80C2047F60C61C0F6000118
:1045000051F82210B0FBF1F04000069900EB510089
:10451000B0FBF1F080B2019001984FF6F0710840C5
:104520000090019800F00E01009840EA51000090C0
:1045300000980599C86013E004989DF80C2047F690
:104540000C61C0F6000151F82210B0FBF1F00699A1
:1045500000EB5100B0FBF1F080B20599C860FFE7B5
:10456000FFE7FFE706B0704782B001900091019825
:10457000806820F44070009908430199886002B077
:10458000704700000000000082B001900091019887
:10459000C06A20F00F00BDF8001008430199C862FE
:1045A00002B070470000000083B002900191FFE765
:1045B000FFE7029850E8020F20F06060019940EA9E
:1045C00041600090FFE70099029A42E8021000283B
:1045D000EFD1FFE7FFE703B07047000000000000E5
:1045E00082B0019000910198406820F440500099F9
:1045F00008430199486002B07047000000000000C5
:1046000083B002900191FFE7FFE7029850E8020FA4
:1046100020F06040019940EA41700090FFE7009966
:10462000029A42E802100028EFD1FFE7FFE703B04B
:10463000704700000000000080B584B00120FDF745
:10464000E3FF02F04DFC00220292114600F0FCFB59
:1046500001460B20009002F05BFC009802F0F8FB92
:1046600002F03EFC029A114600F0EEFB01460C20DF
:10467000019002F04DFC019802F0EAFB02F030FCE0
:10468000029A114600F0E0FB01460D20039002F073
:104690003FFC039802F0DCFB04B080BD000000008A
:1046A00080B582B040F21810C2F2004000904AF289
:1046B0000001C4F200010160002201928260C26028
:1046C00001210174427482744FF0050CC0F814C0CB
:1046D00081610223C3610362C0F824C08162C362A6
:1046E000036342638163C263032101640421416463
:1046F0008264C164026541658265C2650823036600
:1047000042668166FCF77CFF18B1FFE7FBF71CFFF0
:10471000FFE702B080BD000080B582B040F2B81063
:10472000C2F2004000904AF20041C4F20001016070
:10473000002201928260C26001210174427482747D
:104740004FF0050CC0F814C081610223C3610362FD
:10475000C0F824C08162C36203634FF447734363AC
:104760008163C26303210164042141648264C164E2
:10477000026541658265C2650823036642668166FB
:10478000FCF73EFF18B1FFE7FBF7DEFEFFE702B0E4
:1047900080BD00000000000080B582B040F25820CB
:1047A000C2F2004000904DF20041C4F200010160ED
:1047B000002201928260C2600121017442748274FD
:1047C0004FF0050CC0F814C081610223C36103627D
:1047D000C0F824C08162C36203634FF4C7634363BC
:1047E0008163C26303210164042141648264C16462
:1047F000026541658265C26508230366426681667B
:10480000FCF7FEFE18B1FFE7FBF79EFEFFE702B0E4
:1048100080BD00000000000010B59AB000200F908D
:10482000199018901790169015901490139012905C
:10483000119010900420FDF7FBFE2020FDF7F8FEFC
:1048400080200790FDF7F4FE01200B90FDF7F0FEAD
:104850001020FDF7EDFE02200990FDF7E9FE08208B
:10486000FDF7E6FE4020FDF7E3FE41F20040C5F60D
:104870000200019044F21C010091FEF711FB41F28D
:104880000000C5F6020003904FF440410291FEF78C
:1048900007FB40F60040C5F6020004904FF480711B
:1048A0000C91FEF7FDFA079941F60000C5F60200EB
:1048B0000890FEF7F5FA009B01980B9A0F99109358
:1048C00011920322059212921391149110A906914C
:1048D000FEF776FA059B0699DDF82CC00F9ADDF8F5
:1048E00008E00398CDF840E0CDF844C0129313924D
:1048F0001492FEF765FA059B0699DDF82CC00F9A15
:10490000DDF830E00498CDF840E0CDF844C01293D3
:1049100013921492FEF754FA059B0699DDF82CC009
:104920000F9ADDF81CE00898CDF840E0CDF844C0BF
:10493000129313921492FEF743FA09980221C0F2DF
:104940000F01FFF7BDF909980221C0F2F001FFF74E
:10495000B7F909980B990C9B0F9A16931792189216
:104960008DF864108DF865108DF8660016A80A9011
:10497000FEF7DAF809990B9A0F9B0A984FF4007C1E
:10498000CDF838C0CDF858C0179318938DF864202F
:104990008DF865208DF86610FEF7C6F80B9A0C9915
:1049A00040F60000C5F602000D90FEF7E5FA0B9AFE
:1049B0000D980E99FEF7E0FA0C990D980F9AFEF7F4
:1049C000A3FA0D980E990F9AFEF79EFA1AB010BD31
:1049D00080B59EB0002008901D901C901B901A90EE
:1049E000199018901790169015901490139012909B
:1049F000119010900F900E900D900C900B90012044
:104A00000A90FDF751FE0898ADF864001A904FF037
:104A1000FF311B911C904FF08040059019A9FFF7C2
:104A2000B7F90598FFF790F905980A99FFF7F8FA92
:104A30000598089A0A99602311931292139214927E
:104A4000159211AA0392FFF75BFB0A990598FFF7ED
:104A500077FA059810210191FFF7E2FA0199039A7C
:104A60000598FFF74DFB01990598FFF769FA05983E
:104A70004FF480710291FFF7D3FA0299039A0598D7
:104A8000FFF73EFB02990598FFF75AFA05984FF495
:104A900080510491FFF7C4FA039A04990598FFF72F
:104AA0002FFB04990598FFF74BFA05980899FFF733
:104AB000C7FB0598FFF754F90A98FDF7CDFD0220D2
:104AC0000690FDF7C9FD069B08990A9803220792F4
:104AD0000B920C930D920E910F9110900020C5F641
:104AE00002000BA90991FEF76BF9DDF818C0079BCE
:104AF000089A09990A984FF4406ECDF82CE0CDF849
:104B000030C00D930E920F92109040F20040C5F607
:104B10000200FEF755F91EB080BD00000000000045
:104B200080B596B0002006901590149013901290C6
:104B3000119010900F900E900D900C900B900A9089
:104B40000990089040F20830C0F20070FFF7B0F80A
:104B50001020FDF7D1FD02200490FDF791FD04998E
:104B600006984FF440420892099103210A910B9054
:104B70000C9004200D9040F20040C5F6020008A9F8
:104B8000FEF71EF90020C4F20200039001210191FA
:104B90002922FDF751FE01990398069AFDF7D4FDED
:104BA00001990398069AFDF787FE01990398069AE2
:104BB000FDF712FE01990398069AFDF725FE01996B
:104BC00003984FF480620292FDF7D6FD0199039895
:104BD000069AFDF759FE01990398069AFDF7E4FD40
:104BE00001990398FDF79CFD039804992A22FDF78B
:104BF00023FE039804994022FDF7A6FD039804992B
:104C0000069AFDF759FE03980499069AFDF7E4FD0C
:104C100003980499069AFDF7F7FD029A0398049900
:104C2000FDF7AAFD03980499069AFDF72DFE039857
:104C30000499069AFDF7B8FD03980499FDF770FDF5
:104C400002F056F9069A114600F036F90146252081
:104C5000059002F081F9059802F012F906980E907D
:104C60004FF461210F911090119012900C2113912B
:104C70001490159041F20000C4F2010007900EA9B3
:104C8000FFF716FB06990798FFF7BAFC06990798F5
:104C9000FFF78AFC0798FFF7F3FA0798FFF7E0FAA7
:104CA0000798FFF7F9FAFFE741F20000C4F20100AC
:104CB000FFF7FAFB01460120009059B1FFE741F2EE
:104CC0000000C4F20100FFF7E7FBB0FA80F04009F2
:104CD0000090FFE70098C00708B1FFE7E4E716B0CF
:104CE00080BD00000000000080B594B0002004905A
:104CF00013901290119010900F900E900D900C90B8
:104D00000B900A9009900890079006900820C0F236
:104D10000070FEF7CDFF4FF40030FDF7D9FC012005
:104D2000FDF7AEFC04980C210691022107910321A6
:104D3000089109900A9007200B900020C5F6020008
:104D400006A9FEF73DF804990020C4F20200019084
:104D50002B22FDF771FD0198049A1146FDF7F4FC32
:104D6000019804994FF48032FDF7A6FD0198049A4A
:104D70001146FDF731FD0198049A1146FDF744FDF7
:104D8000019804994FF480620392FDF7F5FC0198B5
:104D9000049A1146FDF778FD0198049A1146FDF733
:104DA00003FD01980499FDF7BBFC02F0A1F8049AF9
:104DB000114600F081F801462620029002F0CCF85E
:104DC000029802F05DF8039904980C9048F2A062F2
:104DD000C0F201020D924FF480520E920F9010918A
:104DE000042111911290139044F20040C4F200008B
:104DF00005900CA9FFF75CFA04990598FFF700FCF1
:104E000004990598FFF7D0FB0598FFF739FA059844
:104E1000FFF726FA0598FFF73FFAFFE744F2004054
:104E2000C4F20000FFF738FB08B9FFE7F6E714B05B
:104E300080BD000000000000FFE7FEE7000000006A
:104E4000FFE7FEE70000000088B00790069105929A
:104E5000079800F0070004900498C0F107000528A7
:104E600003D3FFE70420019004E00498C0F1070099
:104E70000190FFE70198039004980430062803D8B6
:104E8000FFE70020009003E0049803380090FFE75C
:104E90000098029006980399012202FA01F1013963
:104EA0000840029B984005999A40013A11400843F6
:104EB00008B070470000000088B007900691059286
:104EC000079800F0070004900498C0F10700052837
:104ED00003D3FFE70420019004E00498C0F1070029
:104EE0000190FFE70198039004980430062803D846
:104EF000FFE70020009003E0049803380090FFE7EC
:104F00000098029006980399012202FA01F10139F2
:104F10000840029B984005999A40013A1140084385
:104F200008B070470000000088B007900691059215
:104F3000079800F0070004900498C0F107000528C6
:104F400003D3FFE70420019004E00498C0F10700B8
:104F50000190FFE70198039004980430062803D8D5
:104F6000FFE70020009003E0049803380090FFE77B
:104F70000098029006980399012202FA01F1013982
:104F80000840029B984005999A40013A1140084315
:104F900008B070470000000080B586B0059004910D
:104FA0000599086A20F0010008620598006A0290DD
:104FB000059840680190059880690390039820F057
:104FC0000300039003984FF68F71CFF6FE710840EF
:104FD0000499096808430390029820F0020004999C
:104FE000096908430290029820F001000499496879
:104FF0000843029005980021C4F20101884220D0A4
:10500000FFE7059840F20041C4F20101884218D040
:10501000FFE7059844F20001C4F20101884210D074
:10502000FFE7059844F20041C4F20101884208D02C
:10503000FFE7059844F60001C4F20101884220D13F
:10504000FFE7029820F008000499496940EA8100CE
:105050000290029820F004000499896840EA8100D7
:105060000290019820F480700499896908430190A6
:10507000019820F400700499C96940EA4100019048
:10508000FFE701980599486003980599886105989C
:105090000499C968FFF788F802980599086200200A
:1050A00006B080BD0000000080B586B00590049178
:1050B0000599086A20F0100008620598006A0290BD
:1050C000059840680190059880690390039820F442
:1050D00040700390039848F6FF71CFF6FF610840D7
:1050E0000499096840EA01200390029820F020000A
:1050F0000499096940EA01100290029820F010001A
:105100000499496840EA0110029005980021C4F210
:105110000101884220D0FFE7059840F20041C4F227
:105120000101884218D0FFE7059844F20001C4F25B
:105130000101884210D0FFE7059844F20041C4F213
:105140000101884208D0FFE7059844F60001C4F247
:105150000101884221D1FFE7029820F080000499E4
:10516000496940EA81100290029820F040000499B9
:10517000896840EA81100290019820F480600499C7
:10518000896940EA81000190019820F40060049947
:10519000C96940EAC1000190FFE70198059948609C
:1051A00003980599886105980499C968FFF704F880
:1051B000029805990862002006B080BD000000003A
:1051C00080B586B0059004910599086A20F4807036
:1051D00008620598006A0290059840680190059859
:1051E000C0690390039820F00300039003984FF6E2
:1051F0008F71CFF6FE710840049909680843039047
:10520000029820F400700499096940EA0120029094
:10521000029820F480700499496840EA01200290C5
:1052200005980021C4F20101884220D0FFE70598CB
:1052300040F20041C4F20101884218D0FFE705980E
:1052400044F20001C4F20101884210D0FFE7059842
:1052500044F20041C4F20101884208D0FFE70598FA
:1052600044F60001C4F20101884221D1FFE702980F
:1052700020F400600499496940EA81200290029874
:1052800020F480600499896840EA812002900198A6
:1052900020F480500499896940EA01100190019836
:1052A00020F400500499C96940EA41100190FFE7D9
:1052B00001980599486003980599C8610598049973
:1052C000C968FEF781FF029805990862002006B0C0
:1052D00080BD00000000000080B586B005900491FC
:1052E0000599086A20F4805008620598006A0290C7
:1052F0000598406801900598C0690390039820F4D0
:1053000040700390039848F6FF71CFF6FF610840A4
:105310000499096840EA01200390029820F40050A3
:105320000499096940EA01300290029820F4805003
:105330000499496840EA0130029005980021C4F2BE
:105340000101884220D0FFE7059840F20041C4F2F5
:105350000101884218D0FFE7059844F20001C4F229
:105360000101884210D0FFE7059844F20041C4F2E1
:105370000101884208D0FFE7059844F60001C4F215
:105380000101884209D1FFE7019820F48040049987
:10539000896940EA81100190FFE70198059948600A
:1053A00003980599C86105980499C968FEF714FF28
:1053B000029805990862002006B080BD0000000038
:1053C00080B584B0039002910399086A20F480307C
:1053D00008620398006A00900398406D019001985C
:1053E0004FF68F71CFF6FE710840029909680843A5
:1053F0000190009820F400300299096940EA0140C8
:105400000090009820F480300299496840EA0140F9
:10541000009003980021C4F20101884220D0FFE7E8
:10542000039840F20041C4F20101884218D0FFE71E
:10543000039844F20001C4F20101884210D0FFE752
:10544000039844F20041C4F20101884208D0FFE70A
:10545000039844F60001C4F2010188420BD1FFE732
:105460000398406820F480300299896940EA01205D
:1054700003994860FFE701980399486503980299EA
:10548000C968FEF7B1FE009803990862002004B0D5
:1054900080BD00000000000080B584B00390029140
:1054A0000399086A20F4801008620398006A00904B
:1054B0000398406D0190019848F6FF71CFF6FF61A7
:1054C00008400299096840EA01200190009820F400
:1054D00000100299096940EA01500090009820F4F8
:1054E00080100299496840EA015000900398002119
:1054F000C4F20101884220D0FFE7039840F2004146
:10550000C4F20101884218D0FFE7039844F2000179
:10551000C4F20101884210D0FFE7039844F2004131
:10552000C4F20101884208D0FFE7039844F6000165
:10553000C4F2010188420BD1FFE70398406820F4D0
:1055400080200299896940EA812003994860FFE739
:1055500001980399486503980299C968FEF750FEBF
:10556000009803990862002004B080BD000000008C
:10557000704700000000000080B582B001900198E3
:105580000090FDF795FD0146009801F00F0247F6E7
:10559000E851C0F60001895C01F01F01C84002B06B
:1055A00080BD00000000000080B582B0019001982D
:1055B0000090FDF785FD01460098C1F3021247F601
:1055C000E851C0F60001895C01F01F01C84002B03B
:1055D00080BD00000000000080B582B001900198FD
:1055E0000090FDF775FD01460098C1F3022247F6D1
:1055F000E851C0F60001895C01F01F01C84002B00B
:1056000080BD00000000000080B586B0002005903D
:10561000FDF782FF0146019118282BD80199DFE898
:1056200001F00D2929292929292917292929292979
:1056300029291D292929292929292300FEF77CF850
:10564000C10849F20000C0F2D030C840059012E015
:1056500040F60010C0F23D0005900CE047F6400017
:10566000C0F27D10059006E002A8FDF751FD0298FA
:10567000059000E0FFE7059806B080BD000000003F
:10568000704700000000000080B582B000900098D4
:105690000138B0F1807F03D3FFE70120019019E0CA
:1056A000009801384EF21401CEF2000108604FF06C
:1056B000FF300F2101F074FC4EF21801CEF2000110
:1056C000002008604EF21002CEF2000207211160A5
:1056D0000190FFE7019802B080BD000000000000CB
:1056E00080B501F0D9FEFCF72FFD80BD0000000061
:1056F00080B584B00320FDF753FBFFE7FDF748FBBF
:10570000032801D0FFE7F9E70220FDF771FC002034
:10571000FDF77EFCFDF7E8FFFFE7FDF7F1FF01284D
:1057200001D0FFE7F9E7FDF7FBFFFFE7FEF70CF815
:10573000012801D0FFE7F9E74020FEF715F8002027
:105740000290FEF721F80298FEF706FAFEF73CF801
:105750000320FEF709F90298FEF716F904200390DA
:10576000FEF7AAF81E20FEF7B7F80120FEF7C4F8EE
:105770000398FEF7D5F80220FEF7E6F8FEF748F8A2
:10578000FFE7FEF791F8012801D0FFE7F9E70820CD
:10579000FEF7F2F90320FEF76BFAFFE7FDF7B4FE20
:1057A000182801D0FFE7F9E70020FEF771FA08207A
:1057B000FEF7E2F940200190FEF7EEF94FF4806029
:1057C000FEF7FAF90198FEF707FA0198FEF714FAC6
:1057D00043F60000C1F69C40FEF7AAFA0F20FCF742
:1057E00003FD18B1FFE7FAF7AFFEFFE704B080BD95
:1057F0004EF68851CEF20001086840F4700008604F
:1058000042F20000C5F20020006800F00F000628F8
:105810000AD8FFE742F20001C5F20021086807221A
:1058200062F303000860FFE744F20041C5F602019D
:10583000086840F00100086044F21042C5F6020218
:105840000020106008684EF67F52CEF6F622104017
:10585000086042F20000C5F20020006800F00F006E
:1058600008280AD3FFE742F20001C5F200210868C8
:10587000072262F303000860FFE744F21841C5F60F
:1058800002010020086044F21C41C5F602010860D4
:1058900044F22041C5F60201086044F22842C5F6F0
:1058A000020240F20021C0F20221116044F22C42B7
:1058B000C5F602020021C0F2FF11116044F230422D
:1058C000C5F6020240F28021C0F20111116044F2DB
:1058D0003442C5F60202106044F23842C5F60202B4
:1058E000116044F23C42C5F60202106044F24042AC
:1058F000C5F60202116044F24441C5F60201086097
:1059000044F20042C5F60202116821F480211160C0
:1059100044F26041C5F60201086044F20001C5F29C
:10592000002143F2D2000860704700000000000030
:1059300080B501F089FE80BD80B501F0D5FC80BD49
:10594000FFE7FEE70000000080B501F0D1FB01F0A9
:10595000F7FB80BD0000000080B501F065FB01F0A1
:10596000CFFB01F0F5FB80BD80B501F07DFB01F0C0
:10597000DBFB01F0F9FB80BD80B584B08DF80F0032
:10598000ADF80C100292BDF80C00A0F2411001908D
:105990000198002820D4FFE7019807281CDCFFE7C6
:1059A0009DF80F1040F23830C2F2004000EB411079
:1059B000019950F8210078B1FFE79DF80F1040F2EF
:1059C0003830C2F2004000EB4110019950F821003C
:1059D000029900F0EDFFFFE704B080BD0000000079
:1059E00082B0019040F26050C2F20040016840F283
:1059F0000810C2F200400160026840F21011C2F2C9
:105A000000410B68D21A40F20C13C2F200431A6034
:105A100000680860019800780199497840EA0120FF
:105A20006FF3DF20A0F5806040F2E801C2F2004190
:105A3000088001984078C008019A927840EA4210A4
:105A40006FF3DF20A0F5806048800198007940085E
:105A5000019A527940EAC2106FF3DF20A0F580600E
:105A60008880019880788009019AD27840EA820083
:105A7000019A127940EA82206FF3DF20A0F580605E
:105A8000C8800198007C019A527C40EA02206FF3A2
:105A9000DF20C0F580600881019840798009488145
:105AA00001984079C0F30110888100200090FFE741
:105AB000009803281CDCFFE7009940F2E800C2F2DE
:105AC000004030F9110000EE100AB8EEC00A9FED58
:105AD0004B1A80EE010A40F20440C2F2004000EB93
